:020000040800F2
:10000000C006002089010008BB0E0008CD0D0008C5
:10001000B90E00088F020008FB0F00080000000066
:10002000000000000000000000000000BF0E0008FB
:100030009102000800000000BD0E0008C10E00087B
:10004000A3010008A3010008A3010008A301000800
:10005000A3010008A3010008A301000893020008FF
:10006000A3010008A3010008A3010008A3010008E0
:10007000A3010008A3010008A3010008A3010008D0
:10008000A3010008A3010008A3010008A3010008C0
:10009000A3010008A3010008A3010008A3010008B0
:1000A000A3010008A3010008A3010008A3010008A0
:1000B000A3010008A3010008A3010008A301000890
:1000C000A3010008A3010008A3010008A301000880
:1000D000A3010008A3010008A3010008A301000870
:1000E000A3010008A3010008A301000800F002F822
:1000F00000F03AF80AA090E8000C82448344AAF188
:100100000107DA4501D100F02FF8AFF2090EBAE885
:100110000F0013F0010F18BFFB1A43F0010318473B
:10012000C8110000E8110000103A24BF78C878C157
:10013000FAD8520724BF30C830C144BF04680C60ED
:10014000704700000023002400250026103A28BF35
:1001500078C1FBD8520728BF30C148BF0B60704739
:100160001FB51FBD10B510BD00F058F81146FFF7C0
:10017000F7FF00F053FF00F076F803B4FFF7F2FF4B
:1001800003BC00F07DF8000009488047094800479B
:10019000FEE7FEE7FEE7FEE7FEE7FEE7FEE7FEE737
:1001A000FEE7FEE704480549054A064B7047000094
:1001B000230F0008ED000008C0000020C00600204A
:1001C000C0020020C00200204FF0000200B513461C
:1001D00094469646203922BFA0E80C50A0E80C5067
:1001E000B1F12001BFF4F7AF090728BFA0E80C5018
:1001F00048BF0CC05DF804EB890028BF40F8042B11
:1002000008BF704748BF20F8022B11F0804F18BF7D
:1002100000F8012B7047704770477047754600F033
:100220002BF8AE4605006946534620F00700854688
:1002300018B020B5FFF7B6FFBDE820404FF000062C
:100240004FF000074FF000084FF0000B21F00701BE
:10025000AC46ACE8C009ACE8C009ACE8C009ACE801
:10026000C0098D46704710B50446AFF300802046A4
:10027000BDE81040FFF781BF0048704760000020D4
:1002800001491820ABBEFEE7260002007047FEE7DA
:100290007047022000F03CB870B5044600F03EF90B
:1002A0000546601C02D004480078044400F036F98A
:1002B000401BA042FAD370BD0800002070B5114C5D
:1002C000002511482178012905D0022909D100F023
:1002D0001BF988B104E0022100F016F9012801D0D1
:1002E000257070BD09480068456202202070BDE895
:1002F0007040064800F08EBC044800F0B3FC0320B8
:10030000207070BD0000002000080140180000208F
:10031000044910B50A68024202D00860FFF7CEFF18
:1003200010BD0000140401402DE9F84FDFF8B8912A
:10033000002409F1040A0AF1040B23460F270BF1EC
:10034000040EC9E00125A5402A40AA427DD1674E8E
:10035000D1F804C0ACEB0608B44532D014DCBCF1D3
:10036000030F3AD009DCBCF1000F2AD0BCF1010F19
:100370001CD0BCF1020F31D11DE0BCF1110F17D020
:10038000BCF1120F2AD119E0B8F5881F19D006DC8C
:10039000B8F5803F15D0B8F5801F1FD111E0B8F532
:1003A000001F0ED0B8F5041F18D10AE0CB6815E085
:1003B000CB681B1D12E0CB6808330FE0CB680C3311
:1003C0000CE08B682BB1012B4FF0080303D0456183
:1003D00004E0042302E0056100E00023FF2A01D8C5
:1003E000064601E000F104064FEA840501D9A5F1B3
:1003F0002005D6F8008007FA05FC28EA0C0803FA65
:1004000005F548EA0508C6F800804D68ED0062D59C
:10041000374DAE6946F00106AE61AD6924F00306C2
:1004200005F001050095334D06EB050CDCF808508E
:10043000A607360F07FA06F825EA0805DFF8B880A0
:10044000404503D14FF0000817E044E0DFF8AC80EE
:10045000404502D14FF001080FE0DFF8A48040458D
:1004600002D14FF0020808E0DFF89880404502D141
:100470004FF0030801E04FF0040808FA06F848EAD4
:100480000508CCF808804D68D9F80060ED034D46AA
:1004900001D5164300E096432E604D68DAF80060FF
:1004A000AD03554601D5164300E096432E604D68D6
:1004B000DBF80060ED025D4601D5164300E096438F
:1004C0002E604D68DEF80060AD02754601D516431A
:1004D00000E096432E60641C0D682A46E5407FF4D8
:1004E00031AFBDE8F88F000000040140000011109A
:1004F000001002400000014000080140000C0140D3
:1005000000100140001401408068084000D0012024
:1005100070470AB1016170470904FBE70148806830
:1005200070470000080000200248816802781144EA
:100530008160704708000020074810B5016841F04D
:1005400010010160032000F06DF80F2000F006F8A4
:1005500000F024F8002010BD0020024070B50D4DC1
:1005600004464FF47A712878B1FBF0F00A49096823
:10057000B1FBF0F000F0C4FA48B9102C07D2002209
:100580002146501E00F02EF800206C6070BD012046
:1005900070BD00000800002014000020094808B5C4
:1005A000816941F001018161816901F001010091DE
:1005B000C16941F08051C161C06900F08050009074
:1005C00008BD000000100240002809DB00F01F02F7
:1005D000012191404009800000F1E020C0F80011A5
:1005E00070470000F0B40E4B1B680C46C3F30223A7
:1005F000C3F10705042D00D90425191D072901D2CF
:10060000002300E0DB1E012606FA05F1491E214009
:1006100099409E40761E16403143F0BC00F0EEBC7F
:100620000CED00E0064900F0070208684FF6FF03F2
:10063000184040EA0220034A104308607047000057
:100640000CED00E00000FA052DE9F0470F4605002B
:1006500061D0434E306800F00700B84209D23068DC
:1006600020F0070038433060306800F00700B842DF
:1006700051D128683B4C810712D5400703D56068EB
:1006800040F4E06060602878000703D5606840F4BB
:10069000605060606068A96820F0F0000843606006
:1006A0002878C00728D06868012810D0216802285F
:1006B00010D0890700292EDA616821F00301014377
:1006C0006160FFF72BFF804641F288390DE0216819
:1006D0008903EFE78901EDE7FFF720FFA0EB0801B1
:1006E000494502D90320BDE8F0876068696800F0D9
:1006F0000C00B0EB810FEFD1306800F00700B8427A
:100700000BD9306820F0070038433060306800F0C3
:100710000700B84201D00120E5E72878400705D559
:100720006068E96820F4E0600843606028780007AA
:1007300006D56068296920F4605040EAC100606015
:1007400000F018F86168084AC1F30311515CC84011
:100750000649086006480068FFF700FF0020C2E76E
:100760000020024000100240D612000814000020B1
:100770000C00002012A185B00FC98DE80F0014A055
:10078000144A006804905168134801F00C03042BCC
:1007900010D0082B0ED1C1F38343C9031DF8030009
:1007A0000AD5516804AAC1F34041515C0A4A50433A
:1007B000B0FBF1F005B0704708494843FAE7000084
:1007C00002030405060708090A0B0C0D0E0F101092
:1007D000010200000010024000127A0000093D00F2
:1007E0002DE9F84F040070D02078C04DC00749D0E3
:1007F0006868C0F38100012807D06868C0F38100F1
:10080000022809D16868C00306D52868800339D555
:1008100060680028E7D035E06068B0F5803F0BD015
:1008200010B1B0F5A02F11D0286820F480302860D6
:10083000286820F4802002E0286840F48030286096
:10084000606890B1FFF76AFE06460AE0286840F447
:1008500080202860F0E700BFFFF760FE801B64285F
:1008600073D828688003F7D50CE0FFF757FE0646DB
:1008700005E000BFFFF752FE801B6428F0D828680F
:100880008003F7D420789A4E80074FF001094FF08B
:10089000000839D5686810F00C0F07D06868C0F3FD
:1008A0008100022809D16868C00306D4286880073F
:1008B00014D52069012808D110E02069B0B1C6F82C
:1008C0000090FFF72BFE074605E00AE1FFF726FE42
:1008D000C01B0228C4D828688007F7D5286861693A
:1008E00020F0F80040EAC10028600DE0C6F8008062
:1008F000FFF714FE074604E0FFF710FEC01B0228B6
:1009000023D828688007F7D4207800072CD57948A9
:10091000A169D9B1C0F80090FFF700FE074604E0D6
:10092000FFF7FCFDC01B02280FD8686A8007F7D5C7
:1009300071484FF4FA510068B0FBF1F0009000BF2D
:100940000098411E0091FAD20EE080E0C0F80080CD
:10095000FFF7E4FD074604E0FFF7E0FDC01B0228B7
:1009600075D8686A8007F7D42078400760D5E869B1
:100970000027C00008D4E86940F08050E861E869C9
:10098000012700F0805000905C480168C90513D42D
:100990000168834641F480710160FFF7BFFD824624
:1009A00006E000BFFFF7BAFDA0EB0A0064284ED8AE
:1009B000DBF80000C005F5D5E06801280AD008B1D1
:1009C000052813D0286A20F001002862286A20F048
:1009D000040002E0286A40F001002862E06841F269
:1009E000883B98B1FFF79AFD82460BE0286A40F0F9
:1009F00004002862EEE700BFFFF790FDA0EB0A01BC
:100A000059455AD8286A8007F6D50CE0FFF786FDCD
:100A1000824605E0FFF782FDA0EB0A0159454CD85C
:100A2000286A8007F6D41FB1E86920F08050E86199
:100A3000E06988B36968C1F38101022944D00228C2
:100A4000C6F8608004D0FFF769FD044638E034E062
:100A5000FFF764FD074604E0FFF760FDC01B0228B6
:100A60002BD828688001F7D4206AB0F5803F05D1E3
:100A70006868A16820F4003008436860D4E9080180
:100A80000843696821F4741108436860C6F86090EF
:100A9000FFF744FD044606E025E000BFFFF73EFDFA
:100AA000001B022809D828688001F7D51BE000BF89
:100AB000FFF734FD001B022802D90320BDE8F88FA0
:100AC00028688001F4D40EE00128F7D06868226A13
:100AD00000F48031914204D1616A00F470108842C0
:100AE00001D00120EAE70020E8E700000010024002
:100AF0000000424280044242140000200070004086
:100B000010B5401EB0F1807F01D3012010BD4FF021
:100B1000E02460610F21601700F070FA0020A061EE
:100B200007202061002010BD70B590F83C20012AFC
:100B300026D0012480F83C40022280F83D20036842
:100B40005A689D6822F070060A6832435A600D4B5D
:100B500002689A4208D0B2F1804F05D00A4B9A42FF
:100B600002D00A4B9A4204D1496825F08003194308
:100B7000916080F83D40002180F83C10084670BD2F
:100B8000022070BD002C014000040040000800401D
:100B900010B5040003D094F83D0010B107E0012027
:100BA00010BD002084F83C00204600F01FF8022011
:100BB00084F83D00211D206800F0B4F9012084F87C
:100BC000460084F83E0084F83F0084F8400084F832
:100BD000410084F8420084F8430084F8440084F81B
:100BE000450084F83D00002010BD000008B50068F5
:100BF0000649884208D10648816941F40061816153
:100C0000806900F40060009008BD0000002C0140E5
:100C10000010024090F83D10012901D001207047DA
:100C2000022180F83D1000680B49884208D0B0F1DD
:100C3000804F05D00949884202D00949884204D131
:100C4000816801F00701062903D0016841F0010124
:100C50000160002070470000002C014000040040AB
:100C60000008004001680A6A41F211131A4207D1D4
:100C70000A6A9B101A4203D10A6822F001020A6034
:100C8000012180F83D100020704770B5044690F8AF
:100C90003C00012817D0012584F83C50022084F83C
:100CA0003D002068826822F0770222F47F42826051
:100CB0000868502830D00DDC20284DD005DC98B3D2
:100CC00010283BD148E0022070BD302844D0402895
:100CD00034D139E0602828D0702806D0B0F5805F84
:100CE0002CD0B0F5005F29D10AE0CB68D1E9012111
:100CF000206800F04DF92068816841F0770109E033
:100D0000CB68D1E90121206800F042F920688168B0
:100D100041F48041816011E0CA684968206800F0B0
:100D200049F95021206807E016E0CA684968206840
:100D300000F051F96021206800F034F984F83D504A
:100D4000002084F83C0070BDCA684968206800F043
:100D500031F940212068EFE7226801461046EBE7B1
:100D600010B5094C207803280DD108480068406A66
:100D700000F09BF9064A074B00F0AAF900F064F96D
:100D800060600020207010BD0000002018000020CE
:100D90009CC420B07268913F70B50A4C207800283E
:100DA0000FD1094D012211462846FFF7B2FB012061
:100DB000FFF772FA002201212846FFF7AAFB012063
:100DC000207070BD0000002000080140FEE7000018
:100DD00070B586B000241B480094019402940394DB
:100DE000816941F020018161816901F02001049154
:100DF000816941F0040181618069134E00F00400B3
:100E00000490002201213046FFF783FB012101A855
:100E10000225009180E8320069463046FFF784FAE7
:100E20000A480095CDE9010469463046FFF77CFA8F
:100E3000002201210720FFF7D5FB0720FFF7C4FBA5
:100E400006B070BD001002400008014000003110E3
:100E500010B586B0002417480094019402940394BE
:100E600004941349059401603F21C0E901144FF631
:100E7000FF71C0E9031444618461FFF789FE08B182
:100E800072B6FEE74FF48050009069460948FFF7BC
:100E9000FCFE08B172B6FEE7049404A90548059467
:100EA000FFF742FE002801D072B6FEE706B010BD83
:100EB000002C014018000020FEE7FEE77047704755
:100EC000FFF732BB30B58FB028216846FFF77CF9B9
:100ED00014210AA8FFF778F901210804CDE90010D0
:100EE0000024029402250491CDE907504FF4E0104C
:100EF00009906846FFF774FC08B172B6FEE70F2050
:100F0000CDE90A054FF48060CDE90C4002210AA822
:100F10000E94FFF799FB002801D072B6FEE70FB0E0
:100F200030BD7047F0B50268164B174C174D4FF0A7
:100F30008047984205D0B84203D0A04201D0A842D1
:100F400003D122F070064A683243984205D0B84275
:100F500003D0A04201D0A84203D122F44074CA6851
:100F600022434C6922F08002224302608A68C262F6
:100F70000A688262984201D10969016301214161D5
:100F8000F0BD0000002C01400004004000080040BB
:100F900010B5846842EA032224F47F440A432243C2
:100FA000826010BD826822F070020A4342F007019D
:100FB0008160704710B5036A046A24F0010404627A
:100FC000846924F0F00444EA021423F00A020A437C
:100FD0008461026210BD10B5036A23F0100303623E
:100FE0008369046A23F4704343EA023224F0A003C5
:100FF00043EA01118261016210BDFEE70907090E93
:10100000002804DB00F1E02080F80014704700F0B5
:101010000F0000F1E02080F8141D7047FFF78CFAF4
:10102000FFF750FFFFF7D4FEFFF712FF4FF496755E
:10103000FFF774FA001BA84203D3FFF7ADFEFFF7DA
:101040006DFAFFF78DFEF3E721F00042A2F1605246
:10105000B2F5801F01F0004328BFD2F17F6C0BD99D
:101060005FEA001C43EAC20242EB507018BF7047AF
:1010700028BF20F001007047B2F5801FBCBF1846A2
:1010800070474FEA410C1CF5001F02D2084600F0E1
:101090001DB970B500F0C6F800000089FFF7F6BF73
:1010A0004FF00040A0F580007047B0FA80F310FACE
:1010B00003F10AD0C3F11D0303F580634FEA4150E9
:1010C0004FEA035202EBD12170474FF00000704706
:1010D000DFF848C170B51CEA111E1EBF1CEA1315CB
:1010E0009EEA0C0F95EA0C0F00F06F8081EA030472
:1010F00023EA4C134EEAD47E21EA4C1141F48011CC
:1011000043F48013AE44A1FB024CA0FB0365AEF197
:101110007F7E361955EB0C05A1FB034C4CF1000307
:10112000A0FB021C16EB0C06654153F100030942BB
:1011300018BF46F0010613F4007F0BD14FEA0331CC
:101140004FEA0530340341EA155140EA16506FF07A
:1011500003020AE04FEAC3214FEAC520F40241EA44
:10116000555140EA56506FF0020202EB2E4201EB5D
:10117000025585EACE710AD05FEA440C18BF24F00C
:10118000004450F1000041F1000120EAD47040F227
:10119000FE7C624500D270BDA84214BF4FF080446F
:1011A0004FF04044002E08BF0024BEF1806FA8BF5E
:1011B000A1F1C041BDE8704080F282804FF0000094
:1011C00001F1C04101F0004170479EEA0C0F0CEAAA
:1011D000131518BF95EA0C0F06D04FF0000081EAF6
:1011E000030E0EF0004170BD00F01CF88900013EB6
:1011F00000F007B800F009B84FEA430C5FEA5C5C06
:1012000008D081EA030100F05BB84FEA410C5FEAC5
:101210005C5CF6D14FF00000014970470000FF0709
:101220000000F87F0EF1020E2EF0030E5EF8046B44
:10123000364205D4012A43EB030515F5001F12D8E9
:10124000012841EB010C1CF5001F0CD80ED14FEA10
:10125000D17C15F5001F0CEB4C0C0CF1020C08BFF7
:101260004CEBD37C04E04FF0080C01E04FEAD37C58
:101270000CEB4C0526FA05F606F00706B6F1040C51
:1012800006D20EEB860CBDE870404CF0010C6047B6
:10129000DFE80CF0090B02024FF000414FF00000B4
:1012A000A1F5002170BD19461046012851EB01043B
:1012B00018BFD4F5001484BF002001F0004170BDB8
:1012C0000808A0F500114FEA31017047FF2141EAFB
:1012D000D050C0057047000000000000000001026F
:1012E0000304060708090000081300080000002096
:1012F0001800000028010008201300081800002032
:10130000A8060000440100080000000000000000E2
:101310000100000010000000000000000024F400A4
:04000005080000ED02
:00000001FF
